{
  "_format": "hh-sol-artifact-1",
  "contractName": "GatewayToken",
  "sourceName": "contracts/GatewayToken.sol",
  "abi": [
    {
      "inputs": [],
      "stateMutability": "nonpayable",
      "type": "constructor"
    },
    {
      "inputs": [],
      "name": "Common__MissingAccount",
      "type": "error"
    },
    {
      "inputs": [
        {
          "internalType": "address",
          "name": "account",
          "type": "address"
        }
      ],
      "name": "Common__NotContract",
      "type": "error"
    },
    {
      "inputs": [
        {
          "internalType": "address",
          "name": "account",
          "type": "address"
        }
      ],
      "name": "Common__NotSuperAdmin",
      "type": "error"
    },
    {
      "inputs": [
        {
          "internalType": "address",
          "name": "sender",
          "type": "address"
        },
        {
          "internalType": "uint256",
          "name": "domain",
          "type": "uint256"
        },
        {
          "internalType": "bytes32",
          "name": "role",
          "type": "bytes32"
        }
      ],
      "name": "Common__Unauthorized",
      "type": "error"
    },
    {
      "inputs": [],
      "name": "GatewayToken__EmptyNetworkName",
      "type": "error"
    },
    {
      "inputs": [
        {
          "internalType": "uint256",
          "name": "available",
          "type": "uint256"
        },
        {
          "internalType": "uint256",
          "name": "required",
          "type": "uint256"
        }
      ],
      "name": "GatewayToken__InsufficientFunds",
      "type": "error"
    },
    {
      "inputs": [
        {
          "internalType": "uint256",
          "name": "network",
          "type": "uint256"
        }
      ],
      "name": "GatewayToken__NetworkAlreadyExists",
      "type": "error"
    },
    {
      "inputs": [
        {
          "internalType": "uint256",
          "name": "network",
          "type": "uint256"
        }
      ],
      "name": "GatewayToken__NetworkDoesNotExist",
      "type": "error"
    },
    {
      "inputs": [
        {
          "internalType": "uint256",
          "name": "network",
          "type": "uint256"
        }
      ],
      "name": "GatewayToken__NotDAOGoverned",
      "type": "error"
    },
    {
      "inputs": [
        {
          "internalType": "uint256",
          "name": "tokenId",
          "type": "uint256"
        }
      ],
      "name": "GatewayToken__TokenDoesNotExist",
      "type": "error"
    },
    {
      "inputs": [
        {
          "internalType": "uint256",
          "name": "tokenId",
          "type": "uint256"
        },
        {
          "internalType": "bool",
          "name": "allowExpired",
          "type": "bool"
        }
      ],
      "name": "GatewayToken__TokenDoesNotExistOrIsInactive",
      "type": "error"
    },
    {
      "inputs": [
        {
          "internalType": "uint256",
          "name": "tokenId",
          "type": "uint256"
        },
        {
          "internalType": "enum IGatewayToken.TokenState",
          "name": "state",
          "type": "uint8"
        },
        {
          "internalType": "enum IGatewayToken.TokenState",
          "name": "expectedState",
          "type": "uint8"
        }
      ],
      "name": "GatewayToken__TokenInvalidStateForOperation",
      "type": "error"
    },
    {
      "inputs": [],
      "name": "GatewayToken__TransferDisabled",
      "type": "error"
    },
    {
      "inputs": [],
      "name": "ParameterizedAccessControl__NoSelfAdminRemoval",
      "type": "error"
    },
    {
      "inputs": [
        {
          "internalType": "bytes32",
          "name": "role",
          "type": "bytes32"
        },
        {
          "internalType": "address",
          "name": "account",
          "type": "address"
        }
      ],
      "name": "ParameterizedAccessControl__RenounceRoleNotForSelf",
      "type": "error"
    },
    {
      "anonymous": false,
      "inputs": [
        {
          "indexed": false,
          "internalType": "address",
          "name": "previousAdmin",
          "type": "address"
        },
        {
          "indexed": false,
          "internalType": "address",
          "name": "newAdmin",
          "type": "address"
        }
      ],
      "name": "AdminChanged",
      "type": "event"
    },
    {
      "anonymous": false,
      "inputs": [
        {
          "indexed": true,
          "internalType": "address",
          "name": "_owner",
          "type": "address"
        },
        {
          "indexed": true,
          "internalType": "address",
          "name": "_approved",
          "type": "address"
        },
        {
          "indexed": true,
          "internalType": "uint256",
          "name": "_tokenId",
          "type": "uint256"
        }
      ],
      "name": "Approval",
      "type": "event"
    },
    {
      "anonymous": false,
      "inputs": [
        {
          "indexed": true,
          "internalType": "address",
          "name": "_owner",
          "type": "address"
        },
        {
          "indexed": true,
          "internalType": "address",
          "name": "_operator",
          "type": "address"
        },
        {
          "indexed": false,
          "internalType": "bool",
          "name": "_approved",
          "type": "bool"
        }
      ],
      "name": "ApprovalForAll",
      "type": "event"
    },
    {
      "anonymous": false,
      "inputs": [
        {
          "indexed": true,
          "internalType": "uint256",
          "name": "_tokenId",
          "type": "uint256"
        },
        {
          "indexed": true,
          "internalType": "address",
          "name": "_operator",
          "type": "address"
        },
        {
          "indexed": false,
          "internalType": "uint256",
          "name": "_value",
          "type": "uint256"
        }
      ],
      "name": "ApprovalValue",
      "type": "event"
    },
    {
      "anonymous": false,
      "inputs": [
        {
          "indexed": true,
          "internalType": "address",
          "name": "beacon",
          "type": "address"
        }
      ],
      "name": "BeaconUpgraded",
      "type": "event"
    },
    {
      "anonymous": false,
      "inputs": [
        {
          "indexed": false,
          "internalType": "uint256",
          "name": "tokenId",
          "type": "uint256"
        },
        {
          "indexed": false,
          "internalType": "uint256",
          "name": "bitmask",
          "type": "uint256"
        }
      ],
      "name": "BitMaskUpdated",
      "type": "event"
    },
    {
      "anonymous": false,
      "inputs": [
        {
          "indexed": true,
          "internalType": "address",
          "name": "chargeHandler",
          "type": "address"
        }
      ],
      "name": "ChargeHandlerUpdated",
      "type": "event"
    },
    {
      "anonymous": false,
      "inputs": [
        {
          "indexed": false,
          "internalType": "address",
          "name": "previousDAOManager",
          "type": "address"
        },
        {
          "indexed": false,
          "internalType": "address",
          "name": "newDAOManager",
          "type": "address"
        },
        {
          "indexed": false,
          "internalType": "uint256",
          "name": "network",
          "type": "uint256"
        }
      ],
      "name": "DAOManagerTransferred",
      "type": "event"
    },
    {
      "anonymous": false,
      "inputs": [
        {
          "indexed": true,
          "internalType": "uint256",
          "name": "tokenId",
          "type": "uint256"
        },
        {
          "indexed": false,
          "internalType": "uint256",
          "name": "timestamp",
          "type": "uint256"
        }
      ],
      "name": "Expiration",
      "type": "event"
    },
    {
      "anonymous": false,
      "inputs": [
        {
          "indexed": true,
          "internalType": "address",
          "name": "flagsStorage",
          "type": "address"
        }
      ],
      "name": "FlagsStorageUpdated",
      "type": "event"
    },
    {
      "anonymous": false,
      "inputs": [
        {
          "indexed": true,
          "internalType": "address",
          "name": "forwarder",
          "type": "address"
        }
      ],
      "name": "ForwarderAdded",
      "type": "event"
    },
    {
      "anonymous": false,
      "inputs": [
        {
          "indexed": true,
          "internalType": "address",
          "name": "forwarder",
          "type": "address"
        }
      ],
      "name": "ForwarderRemoved",
      "type": "event"
    },
    {
      "anonymous": false,
      "inputs": [
        {
          "indexed": true,
          "internalType": "uint256",
          "name": "tokenId",
          "type": "uint256"
        }
      ],
      "name": "Freeze",
      "type": "event"
    },
    {
      "anonymous": false,
      "inputs": [
        {
          "indexed": false,
          "internalType": "uint256",
          "name": "network",
          "type": "uint256"
        },
        {
          "indexed": false,
          "internalType": "string",
          "name": "name",
          "type": "string"
        },
        {
          "indexed": false,
          "internalType": "bool",
          "name": "daoGoverned",
          "type": "bool"
        },
        {
          "indexed": false,
          "internalType": "address",
          "name": "daoManager",
          "type": "address"
        }
      ],
      "name": "GatekeeperNetworkCreated",
      "type": "event"
    },
    {
      "anonymous": false,
      "inputs": [
        {
          "indexed": false,
          "internalType": "string",
          "name": "name",
          "type": "string"
        },
        {
          "indexed": false,
          "internalType": "string",
          "name": "symbol",
          "type": "string"
        },
        {
          "indexed": false,
          "internalType": "address",
          "name": "superAdmin",
          "type": "address"
        },
        {
          "indexed": false,
          "internalType": "address",
          "name": "flagsStorage",
          "type": "address"
        },
        {
          "indexed": false,
          "internalType": "address",
          "name": "chargeHandler",
          "type": "address"
        },
        {
          "indexed": false,
          "internalType": "address[]",
          "name": "trustedForwarders",
          "type": "address[]"
        }
      ],
      "name": "GatewayTokenInitialized",
      "type": "event"
    },
    {
      "anonymous": false,
      "inputs": [
        {
          "indexed": false,
          "internalType": "uint8",
          "name": "version",
          "type": "uint8"
        }
      ],
      "name": "Initialized",
      "type": "event"
    },
    {
      "anonymous": false,
      "inputs": [
        {
          "indexed": true,
          "internalType": "uint256",
          "name": "tokenId",
          "type": "uint256"
        }
      ],
      "name": "Revoke",
      "type": "event"
    },
    {
      "anonymous": false,
      "inputs": [
        {
          "indexed": true,
          "internalType": "bytes32",
          "name": "role",
          "type": "bytes32"
        },
        {
          "indexed": false,
          "internalType": "uint256",
          "name": "domain",
          "type": "uint256"
        },
        {
          "indexed": true,
          "internalType": "bytes32",
          "name": "previousAdminRole",
          "type": "bytes32"
        },
        {
          "indexed": true,
          "internalType": "bytes32",
          "name": "newAdminRole",
          "type": "bytes32"
        }
      ],
      "name": "RoleAdminChanged",
      "type": "event"
    },
    {
      "anonymous": false,
      "inputs": [
        {
          "indexed": true,
          "internalType": "bytes32",
          "name": "role",
          "type": "bytes32"
        },
        {
          "indexed": false,
          "internalType": "uint256",
          "name": "domain",
          "type": "uint256"
        },
        {
          "indexed": true,
          "internalType": "address",
          "name": "account",
          "type": "address"
        },
        {
          "indexed": true,
          "internalType": "address",
          "name": "sender",
          "type": "address"
        }
      ],
      "name": "RoleGranted",
      "type": "event"
    },
    {
      "anonymous": false,
      "inputs": [
        {
          "indexed": true,
          "internalType": "bytes32",
          "name": "role",
          "type": "bytes32"
        },
        {
          "indexed": false,
          "internalType": "uint256",
          "name": "domain",
          "type": "uint256"
        },
        {
          "indexed": true,
          "internalType": "address",
          "name": "account",
          "type": "address"
        },
        {
          "indexed": true,
          "internalType": "address",
          "name": "sender",
          "type": "address"
        }
      ],
      "name": "RoleRevoked",
      "type": "event"
    },
    {
      "anonymous": false,
      "inputs": [
        {
          "indexed": true,
          "internalType": "address",
          "name": "metadataDescriptor",
          "type": "address"
        }
      ],
      "name": "SetMetadataDescriptor",
      "type": "event"
    },
    {
      "anonymous": false,
      "inputs": [
        {
          "indexed": true,
          "internalType": "uint256",
          "name": "_tokenId",
          "type": "uint256"
        },
        {
          "indexed": true,
          "internalType": "uint256",
          "name": "_oldSlot",
          "type": "uint256"
        },
        {
          "indexed": true,
          "internalType": "uint256",
          "name": "_newSlot",
          "type": "uint256"
        }
      ],
      "name": "SlotChanged",
      "type": "event"
    },
    {
      "anonymous": false,
      "inputs": [
        {
          "indexed": true,
          "internalType": "address",
          "name": "account",
          "type": "address"
        }
      ],
      "name": "SuperAdminAdded",
      "type": "event"
    },
    {
      "anonymous": false,
      "inputs": [
        {
          "indexed": true,
          "internalType": "address",
          "name": "account",
          "type": "address"
        }
      ],
      "name": "SuperAdminRemoved",
      "type": "event"
    },
    {
      "anonymous": false,
      "inputs": [
        {
          "indexed": true,
          "internalType": "address",
          "name": "_from",
          "type": "address"
        },
        {
          "indexed": true,
          "internalType": "address",
          "name": "_to",
          "type": "address"
        },
        {
          "indexed": true,
          "internalType": "uint256",
          "name": "_tokenId",
          "type": "uint256"
        }
      ],
      "name": "Transfer",
      "type": "event"
    },
    {
      "anonymous": false,
      "inputs": [
        {
          "indexed": true,
          "internalType": "uint256",
          "name": "_fromTokenId",
          "type": "uint256"
        },
        {
          "indexed": true,
          "internalType": "uint256",
          "name": "_toTokenId",
          "type": "uint256"
        },
        {
          "indexed": false,
          "internalType": "uint256",
          "name": "_value",
          "type": "uint256"
        }
      ],
      "name": "TransferValue",
      "type": "event"
    },
    {
      "anonymous": false,
      "inputs": [
        {
          "indexed": true,
          "internalType": "uint256",
          "name": "tokenId",
          "type": "uint256"
        }
      ],
      "name": "Unfreeze",
      "type": "event"
    },
    {
      "anonymous": false,
      "inputs": [
        {
          "indexed": true,
          "internalType": "address",
          "name": "implementation",
          "type": "address"
        }
      ],
      "name": "Upgraded",
      "type": "event"
    },
    {
      "inputs": [],
      "name": "DAO_MANAGER_ROLE",
      "outputs": [
        {
          "internalType": "bytes32",
          "name": "",
          "type": "bytes32"
        }
      ],
      "stateMutability": "view",
      "type": "function"
    },
    {
      "inputs": [],
      "name": "DEFAULT_ADMIN_ROLE",
      "outputs": [
        {
          "internalType": "bytes32",
          "name": "",
          "type": "bytes32"
        }
      ],
      "stateMutability": "view",
      "type": "function"
    },
    {
      "inputs": [],
      "name": "GATEKEEPER_ROLE",
      "outputs": [
        {
          "internalType": "bytes32",
          "name": "",
          "type": "bytes32"
        }
      ],
      "stateMutability": "view",
      "type": "function"
    },
    {
      "inputs": [],
      "name": "NETWORK_AUTHORITY_ROLE",
      "outputs": [
        {
          "internalType": "bytes32",
          "name": "",
          "type": "bytes32"
        }
      ],
      "stateMutability": "view",
      "type": "function"
    },
    {
      "inputs": [
        {
          "internalType": "address",
          "name": "forwarder",
          "type": "address"
        }
      ],
      "name": "addForwarder",
      "outputs": [],
      "stateMutability": "nonpayable",
      "type": "function"
    },
    {
      "inputs": [
        {
          "internalType": "address",
          "name": "gatekeeper",
          "type": "address"
        },
        {
          "internalType": "uint256",
          "name": "network",
          "type": "uint256"
        }
      ],
      "name": "addGatekeeper",
      "outputs": [],
      "stateMutability": "nonpayable",
      "type": "function"
    },
    {
      "inputs": [
        {
          "internalType": "address",
          "name": "authority",
          "type": "address"
        },
        {
          "internalType": "uint256",
          "name": "network",
          "type": "uint256"
        }
      ],
      "name": "addNetworkAuthority",
      "outputs": [],
      "stateMutability": "nonpayable",
      "type": "function"
    },
    {
      "inputs": [
        {
          "internalType": "uint256",
          "name": "tokenId_",
          "type": "uint256"
        },
        {
          "internalType": "address",
          "name": "operator_",
          "type": "address"
        }
      ],
      "name": "allowance",
      "outputs": [
        {
          "internalType": "uint256",
          "name": "",
          "type": "uint256"
        }
      ],
      "stateMutability": "view",
      "type": "function"
    },
    {
      "inputs": [
        {
          "internalType": "address",
          "name": "",
          "type": "address"
        },
        {
          "internalType": "uint256",
          "name": "",
          "type": "uint256"
        }
      ],
      "name": "approve",
      "outputs": [],
      "stateMutability": "payable",
      "type": "function"
    },
    {
      "inputs": [
        {
          "internalType": "uint256",
          "name": "",
          "type": "uint256"
        },
        {
          "internalType": "address",
          "name": "",
          "type": "address"
        },
        {
          "internalType": "uint256",
          "name": "",
          "type": "uint256"
        }
      ],
      "name": "approve",
      "outputs": [],
      "stateMutability": "payable",
      "type": "function"
    },
    {
      "inputs": [
        {
          "internalType": "address",
          "name": "owner_",
          "type": "address"
        }
      ],
      "name": "balanceOf",
      "outputs": [
        {
          "internalType": "uint256",
          "name": "balance",
          "type": "uint256"
        }
      ],
      "stateMutability": "view",
      "type": "function"
    },
    {
      "inputs": [
        {
          "internalType": "uint256",
          "name": "tokenId_",
          "type": "uint256"
        }
      ],
      "name": "balanceOf",
      "outputs": [
        {
          "internalType": "uint256",
          "name": "",
          "type": "uint256"
        }
      ],
      "stateMutability": "view",
      "type": "function"
    },
    {
      "inputs": [
        {
          "internalType": "uint256",
          "name": "tokenId",
          "type": "uint256"
        }
      ],
      "name": "burn",
      "outputs": [],
      "stateMutability": "nonpayable",
      "type": "function"
    },
    {
      "inputs": [],
      "name": "contractURI",
      "outputs": [
        {
          "internalType": "string",
          "name": "",
          "type": "string"
        }
      ],
      "stateMutability": "view",
      "type": "function"
    },
    {
      "inputs": [
        {
          "internalType": "uint256",
          "name": "network",
          "type": "uint256"
        },
        {
          "internalType": "string",
          "name": "name",
          "type": "string"
        },
        {
          "internalType": "bool",
          "name": "daoGoverned",
          "type": "bool"
        },
        {
          "internalType": "address",
          "name": "daoManager",
          "type": "address"
        }
      ],
      "name": "createNetwork",
      "outputs": [],
      "stateMutability": "nonpayable",
      "type": "function"
    },
    {
      "inputs": [],
      "name": "flagsStorage",
      "outputs": [
        {
          "internalType": "contract IFlagsStorage",
          "name": "",
          "type": "address"
        }
      ],
      "stateMutability": "view",
      "type": "function"
    },
    {
      "inputs": [
        {
          "internalType": "uint256",
          "name": "tokenId",
          "type": "uint256"
        }
      ],
      "name": "freeze",
      "outputs": [],
      "stateMutability": "nonpayable",
      "type": "function"
    },
    {
      "inputs": [
        {
          "internalType": "uint256",
          "name": "tokenId_",
          "type": "uint256"
        }
      ],
      "name": "getApproved",
      "outputs": [
        {
          "internalType": "address",
          "name": "",
          "type": "address"
        }
      ],
      "stateMutability": "view",
      "type": "function"
    },
    {
      "inputs": [
        {
          "internalType": "uint256",
          "name": "tokenId",
          "type": "uint256"
        }
      ],
      "name": "getExpiration",
      "outputs": [
        {
          "internalType": "uint256",
          "name": "",
          "type": "uint256"
        }
      ],
      "stateMutability": "view",
      "type": "function"
    },
    {
      "inputs": [
        {
          "internalType": "uint256",
          "name": "tokenId",
          "type": "uint256"
        }
      ],
      "name": "getIssuingGatekeeper",
      "outputs": [
        {
          "internalType": "address",
          "name": "",
          "type": "address"
        }
      ],
      "stateMutability": "view",
      "type": "function"
    },
    {
      "inputs": [
        {
          "internalType": "uint256",
          "name": "network",
          "type": "uint256"
        }
      ],
      "name": "getNetwork",
      "outputs": [
        {
          "internalType": "string",
          "name": "",
          "type": "string"
        }
      ],
      "stateMutability": "view",
      "type": "function"
    },
    {
      "inputs": [
        {
          "internalType": "bytes32",
          "name": "role",
          "type": "bytes32"
        },
        {
          "internalType": "uint256",
          "name": "domain",
          "type": "uint256"
        }
      ],
      "name": "getRoleAdmin",
      "outputs": [
        {
          "internalType": "bytes32",
          "name": "",
          "type": "bytes32"
        }
      ],
      "stateMutability": "view",
      "type": "function"
    },
    {
      "inputs": [
        {
          "internalType": "uint256",
          "name": "tokenId",
          "type": "uint256"
        }
      ],
      "name": "getToken",
      "outputs": [
        {
          "internalType": "address",
          "name": "owner",
          "type": "address"
        },
        {
          "internalType": "uint8",
          "name": "state",
          "type": "uint8"
        },
        {
          "internalType": "string",
          "name": "identity",
          "type": "string"
        },
        {
          "internalType": "uint256",
          "name": "expiration",
          "type": "uint256"
        },
        {
          "internalType": "uint256",
          "name": "bitmask",
          "type": "uint256"
        }
      ],
      "stateMutability": "view",
      "type": "function"
    },
    {
      "inputs": [
        {
          "internalType": "uint256",
          "name": "tokenId",
          "type": "uint256"
        }
      ],
      "name": "getTokenBitmask",
      "outputs": [
        {
          "internalType": "uint256",
          "name": "",
          "type": "uint256"
        }
      ],
      "stateMutability": "view",
      "type": "function"
    },
    {
      "inputs": [
        {
          "internalType": "address",
          "name": "owner",
          "type": "address"
        },
        {
          "internalType": "uint256",
          "name": "network",
          "type": "uint256"
        },
        {
          "internalType": "bool",
          "name": "onlyActive",
          "type": "bool"
        }
      ],
      "name": "getTokenIdsByOwnerAndNetwork",
      "outputs": [
        {
          "internalType": "uint256[]",
          "name": "",
          "type": "uint256[]"
        }
      ],
      "stateMutability": "view",
      "type": "function"
    },
    {
      "inputs": [
        {
          "internalType": "bytes32",
          "name": "role",
          "type": "bytes32"
        },
        {
          "internalType": "uint256",
          "name": "domain",
          "type": "uint256"
        },
        {
          "internalType": "address",
          "name": "account",
          "type": "address"
        }
      ],
      "name": "grantRole",
      "outputs": [],
      "stateMutability": "nonpayable",
      "type": "function"
    },
    {
      "inputs": [
        {
          "internalType": "bytes32",
          "name": "role",
          "type": "bytes32"
        },
        {
          "internalType": "uint256",
          "name": "domain",
          "type": "uint256"
        },
        {
          "internalType": "address",
          "name": "account",
          "type": "address"
        }
      ],
      "name": "hasRole",
      "outputs": [
        {
          "internalType": "bool",
          "name": "",
          "type": "bool"
        }
      ],
      "stateMutability": "view",
      "type": "function"
    },
    {
      "inputs": [
        {
          "internalType": "string",
          "name": "name",
          "type": "string"
        },
        {
          "internalType": "string",
          "name": "symbol",
          "type": "string"
        },
        {
          "internalType": "address",
          "name": "superAdmin",
          "type": "address"
        },
        {
          "internalType": "address",
          "name": "flagsStorage",
          "type": "address"
        },
        {
          "internalType": "address",
          "name": "chargeHandler",
          "type": "address"
        },
        {
          "internalType": "address[]",
          "name": "trustedForwarders",
          "type": "address[]"
        }
      ],
      "name": "initialize",
      "outputs": [],
      "stateMutability": "nonpayable",
      "type": "function"
    },
    {
      "inputs": [
        {
          "internalType": "address",
          "name": "owner_",
          "type": "address"
        },
        {
          "internalType": "address",
          "name": "operator_",
          "type": "address"
        }
      ],
      "name": "isApprovedForAll",
      "outputs": [
        {
          "internalType": "bool",
          "name": "",
          "type": "bool"
        }
      ],
      "stateMutability": "view",
      "type": "function"
    },
    {
      "inputs": [
        {
          "internalType": "address",
          "name": "gatekeeper",
          "type": "address"
        },
        {
          "internalType": "uint256",
          "name": "network",
          "type": "uint256"
        }
      ],
      "name": "isGatekeeper",
      "outputs": [
        {
          "internalType": "bool",
          "name": "",
          "type": "bool"
        }
      ],
      "stateMutability": "view",
      "type": "function"
    },
    {
      "inputs": [
        {
          "internalType": "address",
          "name": "authority",
          "type": "address"
        },
        {
          "internalType": "uint256",
          "name": "network",
          "type": "uint256"
        }
      ],
      "name": "isNetworkAuthority",
      "outputs": [
        {
          "internalType": "bool",
          "name": "",
          "type": "bool"
        }
      ],
      "stateMutability": "view",
      "type": "function"
    },
    {
      "inputs": [
        {
          "internalType": "uint256",
          "name": "",
          "type": "uint256"
        }
      ],
      "name": "isNetworkDAOGoverned",
      "outputs": [
        {
          "internalType": "bool",
          "name": "",
          "type": "bool"
        }
      ],
      "stateMutability": "view",
      "type": "function"
    },
    {
      "inputs": [
        {
          "internalType": "address",
          "name": "account",
          "type": "address"
        }
      ],
      "name": "isSuperAdmin",
      "outputs": [
        {
          "internalType": "bool",
          "name": "",
          "type": "bool"
        }
      ],
      "stateMutability": "view",
      "type": "function"
    },
    {
      "inputs": [
        {
          "internalType": "address",
          "name": "forwarder",
          "type": "address"
        }
      ],
      "name": "isTrustedForwarder",
      "outputs": [
        {
          "internalType": "bool",
          "name": "",
          "type": "bool"
        }
      ],
      "stateMutability": "view",
      "type": "function"
    },
    {
      "inputs": [],
      "name": "metadataDescriptor",
      "outputs": [
        {
          "internalType": "contract IERC3525MetadataDescriptorUpgradeable",
          "name": "",
          "type": "address"
        }
      ],
      "stateMutability": "view",
      "type": "function"
    },
    {
      "inputs": [
        {
          "internalType": "address",
          "name": "to",
          "type": "address"
        },
        {
          "internalType": "uint256",
          "name": "network",
          "type": "uint256"
        },
        {
          "internalType": "uint256",
          "name": "expiration",
          "type": "uint256"
        },
        {
          "internalType": "uint256",
          "name": "mask",
          "type": "uint256"
        },
        {
          "components": [
            {
              "internalType": "uint256",
              "name": "value",
              "type": "uint256"
            },
            {
              "internalType": "enum ChargeType",
              "name": "chargeType",
              "type": "uint8"
            },
            {
              "internalType": "address",
              "name": "token",
              "type": "address"
            },
            {
              "internalType": "address",
              "name": "tokenSender",
              "type": "address"
            },
            {
              "internalType": "address",
              "name": "recipient",
              "type": "address"
            }
          ],
          "internalType": "struct Charge",
          "name": "charge",
          "type": "tuple"
        }
      ],
      "name": "mint",
      "outputs": [],
      "stateMutability": "payable",
      "type": "function"
    },
    {
      "inputs": [],
      "name": "name",
      "outputs": [
        {
          "internalType": "string",
          "name": "",
          "type": "string"
        }
      ],
      "stateMutability": "view",
      "type": "function"
    },
    {
      "inputs": [
        {
          "internalType": "uint256",
          "name": "network",
          "type": "uint256"
        },
        {
          "internalType": "enum GatewayToken.NetworkFeature",
          "name": "feature",
          "type": "uint8"
        }
      ],
      "name": "networkHasFeature",
      "outputs": [
        {
          "internalType": "bool",
          "name": "",
          "type": "bool"
        }
      ],
      "stateMutability": "view",
      "type": "function"
    },
    {
      "inputs": [
        {
          "internalType": "uint256",
          "name": "tokenId_",
          "type": "uint256"
        }
      ],
      "name": "ownerOf",
      "outputs": [
        {
          "internalType": "address",
          "name": "owner_",
          "type": "address"
        }
      ],
      "stateMutability": "view",
      "type": "function"
    },
    {
      "inputs": [],
      "name": "proxiableUUID",
      "outputs": [
        {
          "internalType": "bytes32",
          "name": "",
          "type": "bytes32"
        }
      ],
      "stateMutability": "view",
      "type": "function"
    },
    {
      "inputs": [
        {
          "internalType": "address",
          "name": "forwarder",
          "type": "address"
        }
      ],
      "name": "removeForwarder",
      "outputs": [],
      "stateMutability": "nonpayable",
      "type": "function"
    },
    {
      "inputs": [
        {
          "internalType": "address",
          "name": "gatekeeper",
          "type": "address"
        },
        {
          "internalType": "uint256",
          "name": "network",
          "type": "uint256"
        }
      ],
      "name": "removeGatekeeper",
      "outputs": [],
      "stateMutability": "nonpayable",
      "type": "function"
    },
    {
      "inputs": [
        {
          "internalType": "address",
          "name": "authority",
          "type": "address"
        },
        {
          "internalType": "uint256",
          "name": "network",
          "type": "uint256"
        }
      ],
      "name": "removeNetworkAuthority",
      "outputs": [],
      "stateMutability": "nonpayable",
      "type": "function"
    },
    {
      "inputs": [
        {
          "internalType": "uint256",
          "name": "network",
          "type": "uint256"
        },
        {
          "internalType": "string",
          "name": "name",
          "type": "string"
        }
      ],
      "name": "renameNetwork",
      "outputs": [],
      "stateMutability": "nonpayable",
      "type": "function"
    },
    {
      "inputs": [
        {
          "internalType": "bytes32",
          "name": "role",
          "type": "bytes32"
        },
        {
          "internalType": "uint256",
          "name": "domain",
          "type": "uint256"
        },
        {
          "internalType": "address",
          "name": "account",
          "type": "address"
        }
      ],
      "name": "renounceRole",
      "outputs": [],
      "stateMutability": "nonpayable",
      "type": "function"
    },
    {
      "inputs": [
        {
          "internalType": "uint256",
          "name": "tokenId",
          "type": "uint256"
        }
      ],
      "name": "revoke",
      "outputs": [],
      "stateMutability": "nonpayable",
      "type": "function"
    },
    {
      "inputs": [
        {
          "internalType": "bytes32",
          "name": "role",
          "type": "bytes32"
        },
        {
          "internalType": "uint256",
          "name": "domain",
          "type": "uint256"
        },
        {
          "internalType": "address",
          "name": "account",
          "type": "address"
        }
      ],
      "name": "revokeRole",
      "outputs": [],
      "stateMutability": "nonpayable",
      "type": "function"
    },
    {
      "inputs": [
        {
          "internalType": "address",
          "name": "account",
          "type": "address"
        }
      ],
      "name": "revokeSuperAdmin",
      "outputs": [],
      "stateMutability": "nonpayable",
      "type": "function"
    },
    {
      "inputs": [
        {
          "internalType": "address",
          "name": "from_",
          "type": "address"
        },
        {
          "internalType": "address",
          "name": "to_",
          "type": "address"
        },
        {
          "internalType": "uint256",
          "name": "tokenId_",
          "type": "uint256"
        }
      ],
      "name": "safeTransferFrom",
      "outputs": [],
      "stateMutability": "payable",
      "type": "function"
    },
    {
      "inputs": [
        {
          "internalType": "address",
          "name": "from_",
          "type": "address"
        },
        {
          "internalType": "address",
          "name": "to_",
          "type": "address"
        },
        {
          "internalType": "uint256",
          "name": "tokenId_",
          "type": "uint256"
        },
        {
          "internalType": "bytes",
          "name": "data_",
          "type": "bytes"
        }
      ],
      "name": "safeTransferFrom",
      "outputs": [],
      "stateMutability": "payable",
      "type": "function"
    },
    {
      "inputs": [
        {
          "internalType": "address",
          "name": "operator_",
          "type": "address"
        },
        {
          "internalType": "bool",
          "name": "approved_",
          "type": "bool"
        }
      ],
      "name": "setApprovalForAll",
      "outputs": [],
      "stateMutability": "nonpayable",
      "type": "function"
    },
    {
      "inputs": [
        {
          "internalType": "uint256",
          "name": "tokenId",
          "type": "uint256"
        },
        {
          "internalType": "uint256",
          "name": "mask",
          "type": "uint256"
        }
      ],
      "name": "setBitmask",
      "outputs": [],
      "stateMutability": "nonpayable",
      "type": "function"
    },
    {
      "inputs": [
        {
          "internalType": "uint256",
          "name": "tokenId",
          "type": "uint256"
        },
        {
          "internalType": "uint256",
          "name": "timestamp",
          "type": "uint256"
        },
        {
          "components": [
            {
              "internalType": "uint256",
              "name": "value",
              "type": "uint256"
            },
            {
              "internalType": "enum ChargeType",
              "name": "chargeType",
              "type": "uint8"
            },
            {
              "internalType": "address",
              "name": "token",
              "type": "address"
            },
            {
              "internalType": "address",
              "name": "tokenSender",
              "type": "address"
            },
            {
              "internalType": "address",
              "name": "recipient",
              "type": "address"
            }
          ],
          "internalType": "struct Charge",
          "name": "charge",
          "type": "tuple"
        }
      ],
      "name": "setExpiration",
      "outputs": [],
      "stateMutability": "payable",
      "type": "function"
    },
    {
      "inputs": [
        {
          "internalType": "address",
          "name": "_metadataDescriptor",
          "type": "address"
        }
      ],
      "name": "setMetadataDescriptor",
      "outputs": [],
      "stateMutability": "nonpayable",
      "type": "function"
    },
    {
      "inputs": [
        {
          "internalType": "uint256",
          "name": "network",
          "type": "uint256"
        },
        {
          "internalType": "uint256",
          "name": "mask",
          "type": "uint256"
        }
      ],
      "name": "setNetworkFeatures",
      "outputs": [],
      "stateMutability": "nonpayable",
      "type": "function"
    },
    {
      "inputs": [
        {
          "internalType": "address",
          "name": "account",
          "type": "address"
        }
      ],
      "name": "setSuperAdmin",
      "outputs": [],
      "stateMutability": "nonpayable",
      "type": "function"
    },
    {
      "inputs": [
        {
          "internalType": "uint256",
          "name": "tokenId_",
          "type": "uint256"
        }
      ],
      "name": "slotOf",
      "outputs": [
        {
          "internalType": "uint256",
          "name": "",
          "type": "uint256"
        }
      ],
      "stateMutability": "view",
      "type": "function"
    },
    {
      "inputs": [
        {
          "internalType": "uint256",
          "name": "slot_",
          "type": "uint256"
        }
      ],
      "name": "slotURI",
      "outputs": [
        {
          "internalType": "string",
          "name": "",
          "type": "string"
        }
      ],
      "stateMutability": "view",
      "type": "function"
    },
    {
      "inputs": [
        {
          "internalType": "bytes4",
          "name": "interfaceId",
          "type": "bytes4"
        }
      ],
      "name": "supportsInterface",
      "outputs": [
        {
          "internalType": "bool",
          "name": "",
          "type": "bool"
        }
      ],
      "stateMutability": "view",
      "type": "function"
    },
    {
      "inputs": [],
      "name": "symbol",
      "outputs": [
        {
          "internalType": "string",
          "name": "",
          "type": "string"
        }
      ],
      "stateMutability": "view",
      "type": "function"
    },
    {
      "inputs": [
        {
          "internalType": "uint256",
          "name": "index_",
          "type": "uint256"
        }
      ],
      "name": "tokenByIndex",
      "outputs": [
        {
          "internalType": "uint256",
          "name": "",
          "type": "uint256"
        }
      ],
      "stateMutability": "view",
      "type": "function"
    },
    {
      "inputs": [
        {
          "internalType": "address",
          "name": "owner_",
          "type": "address"
        },
        {
          "internalType": "uint256",
          "name": "index_",
          "type": "uint256"
        }
      ],
      "name": "tokenOfOwnerByIndex",
      "outputs": [
        {
          "internalType": "uint256",
          "name": "",
          "type": "uint256"
        }
      ],
      "stateMutability": "view",
      "type": "function"
    },
    {
      "inputs": [
        {
          "internalType": "uint256",
          "name": "tokenId_",
          "type": "uint256"
        }
      ],
      "name": "tokenURI",
      "outputs": [
        {
          "internalType": "string",
          "name": "",
          "type": "string"
        }
      ],
      "stateMutability": "view",
      "type": "function"
    },
    {
      "inputs": [],
      "name": "totalSupply",
      "outputs": [
        {
          "internalType": "uint256",
          "name": "",
          "type": "uint256"
        }
      ],
      "stateMutability": "view",
      "type": "function"
    },
    {
      "inputs": [
        {
          "internalType": "address",
          "name": "previousManager",
          "type": "address"
        },
        {
          "internalType": "address",
          "name": "newManager",
          "type": "address"
        },
        {
          "internalType": "uint256",
          "name": "network",
          "type": "uint256"
        }
      ],
      "name": "transferDAOManager",
      "outputs": [],
      "stateMutability": "nonpayable",
      "type": "function"
    },
    {
      "inputs": [
        {
          "internalType": "uint256",
          "name": "fromTokenId_",
          "type": "uint256"
        },
        {
          "internalType": "address",
          "name": "to_",
          "type": "address"
        },
        {
          "internalType": "uint256",
          "name": "value_",
          "type": "uint256"
        }
      ],
      "name": "transferFrom",
      "outputs": [
        {
          "internalType": "uint256",
          "name": "newTokenId",
          "type": "uint256"
        }
      ],
      "stateMutability": "payable",
      "type": "function"
    },
    {
      "inputs": [
        {
          "internalType": "address",
          "name": "from_",
          "type": "address"
        },
        {
          "internalType": "address",
          "name": "to_",
          "type": "address"
        },
        {
          "internalType": "uint256",
          "name": "tokenId_",
          "type": "uint256"
        }
      ],
      "name": "transferFrom",
      "outputs": [],
      "stateMutability": "payable",
      "type": "function"
    },
    {
      "inputs": [
        {
          "internalType": "uint256",
          "name": "fromTokenId_",
          "type": "uint256"
        },
        {
          "internalType": "uint256",
          "name": "toTokenId_",
          "type": "uint256"
        },
        {
          "internalType": "uint256",
          "name": "value_",
          "type": "uint256"
        }
      ],
      "name": "transferFrom",
      "outputs": [],
      "stateMutability": "payable",
      "type": "function"
    },
    {
      "inputs": [],
      "name": "transfersRestricted",
      "outputs": [
        {
          "internalType": "bool",
          "name": "",
          "type": "bool"
        }
      ],
      "stateMutability": "pure",
      "type": "function"
    },
    {
      "inputs": [
        {
          "internalType": "uint256",
          "name": "tokenId",
          "type": "uint256"
        }
      ],
      "name": "unfreeze",
      "outputs": [],
      "stateMutability": "nonpayable",
      "type": "function"
    },
    {
      "inputs": [
        {
          "internalType": "address",
          "name": "chargeHandler",
          "type": "address"
        }
      ],
      "name": "updateChargeHandler",
      "outputs": [],
      "stateMutability": "nonpayable",
      "type": "function"
    },
    {
      "inputs": [
        {
          "internalType": "address",
          "name": "flagsStorage",
          "type": "address"
        }
      ],
      "name": "updateFlagsStorage",
      "outputs": [],
      "stateMutability": "nonpayable",
      "type": "function"
    },
    {
      "inputs": [
        {
          "internalType": "address",
          "name": "newImplementation",
          "type": "address"
        }
      ],
      "name": "upgradeTo",
      "outputs": [],
      "stateMutability": "nonpayable",
      "type": "function"
    },
    {
      "inputs": [
        {
          "internalType": "address",
          "name": "newImplementation",
          "type": "address"
        },
        {
          "internalType": "bytes",
          "name": "data",
          "type": "bytes"
        }
      ],
      "name": "upgradeToAndCall",
      "outputs": [],
      "stateMutability": "payable",
      "type": "function"
    },
    {
      "inputs": [],
      "name": "valueDecimals",
      "outputs": [
        {
          "internalType": "uint8",
          "name": "",
          "type": "uint8"
        }
      ],
      "stateMutability": "view",
      "type": "function"
    },
    {
      "inputs": [
        {
          "internalType": "address",
          "name": "owner",
          "type": "address"
        },
        {
          "internalType": "uint256",
          "name": "network",
          "type": "uint256"
        }
      ],
      "name": "verifyToken",
      "outputs": [
        {
          "internalType": "bool",
          "name": "",
          "type": "bool"
        }
      ],
      "stateMutability": "view",
      "type": "function"
    },
    {
      "inputs": [
        {
          "internalType": "uint256",
          "name": "tokenId",
          "type": "uint256"
        }
      ],
      "name": "verifyToken",
      "outputs": [
        {
          "internalType": "bool",
          "name": "",
          "type": "bool"
        }
      ],
      "stateMutability": "view",
      "type": "function"
    }
  ],
  "bytecode": "0x60a0604052306080523480156200001557600080fd5b506200002062000026565b620000e7565b600054610100900460ff1615620000935760405162461bcd60e51b815260206004820152602760248201527f496e697469616c697a61626c653a20636f6e747261637420697320696e697469604482015266616c697a696e6760c81b606482015260840160405180910390fd5b60005460ff90811614620000e5576000805460ff191660ff9081179091556040519081527f7f26b83ff96e1f2b6a682f133852f6798a09c465da95921460cefb38474024989060200160405180910390a15b565b608051615d846200011f6000396000818161165701528181611697015281816118060152818161184601526119790152615d846000f3fe6080604052600436106104225760003560e01c80637dbded281161022f578063b5d6163511610139578063df2a7fe1116100b6578063e8a3d4851161007a578063e8a3d48514610d0d578063e985e9c514610d22578063f415999014610d6f578063ff17e23214610d9c578063ff85a97514610dbc57600080fd5b8063df2a7fe114610c43578063df7f453b14610c63578063e345e0bc14610c9c578063e4b50cb814610cbc578063e71fb11014610ced57600080fd5b8063c58dbbed116100fd578063c58dbbed14610bae578063c87b56dd14610bce578063ce6da01a14610bee578063d6fd317514610c01578063d7a78db814610c2357600080fd5b8063b5d6163514610b1b578063b88d4fde14610b3b578063babb898d14610b4e578063bfea1f9714610b6e578063c2a366fb14610b8e57600080fd5b806395d89b41116101c7578063a217fddf1161018b578063a217fddf14610a76578063a22cb46514610a8b578063a578c09314610aab578063a8fa8e0d14610adb578063b4bd857914610afb57600080fd5b806395d89b41146109e157806395ea5717146109f65780639c7525e614610a165780639cc7f70814610a36578063a05b775f14610a5657600080fd5b80637dbded28146108dd57806381e9ff19146108fd57806382d66d5f1461091f57806383b2b2761461093f578063840f71131461095f5780638423df791461097f5780638cb0a511146109935780638eb7a776146109a157806390eddd52146109c157600080fd5b80633568dd291161033057806351da912d116102c85780636623fc461161028c5780636623fc461461083b5780636dba27291461085b5780636f7caf411461087b57806370a082311461089d57806370f08160146108bd57600080fd5b806351da912d1461078d57806352d1902d146107ad578063572b6c05146107c25780635c41d2fe146107fb5780636352211e1461081b57600080fd5b80633568dd29146106855780633659cfe6146106a557806336e45041146106c55780633e7e8669146106e557806342842e0e1461070757806342966c681461071a5780634d93172d1461073a5780634f1ef2861461075a5780634f6ccce71461076d57600080fd5b806320c5429b116103be5780632d33d27a116103825780632d33d27a146105dc5780632f745c59146105fc578063310ed7f01461061c57806334d7a95e1461062f57806334e37b8a1461066557600080fd5b806320c5429b1461055657806323287f241461057657806323b872dd14610589578063263f3e7e1461059c578063281b1edb146105bc57600080fd5b806301ffc9a71461042757806306fdde031461045c578063081812fc1461047e578063095ea7b3146104ab57806309c3dd87146104c05780630f485c02146104e0578063157000521461050157806318160ddd146105215780631c69e86714610536575b600080fd5b34801561043357600080fd5b50610447610442366004614d17565b610ddc565b60405190151581526020015b60405180910390f35b34801561046857600080fd5b50610471610e3d565b6040516104539190614d84565b34801561048a57600080fd5b5061049e610499366004614d97565b610ecf565b6040516104539190614db0565b6104be6104b9366004614ddb565b610f21565b005b3480156104cc57600080fd5b506104716104db366004614d97565b610f3a565b6104f36104ee366004614e05565b61102c565b604051908152602001610453565b34801561050d57600080fd5b506104be61051c366004614e3a565b61106b565b34801561052d57600080fd5b50609d546104f3565b34801561054257600080fd5b506104be610551366004614e9d565b6110cb565b34801561056257600080fd5b506104be610571366004614d97565b6113c6565b6104be610584366004614fb2565b61141a565b6104be610597366004615004565b6114a1565b3480156105a857600080fd5b506104f36105b7366004614d97565b6114de565b3480156105c857600080fd5b506104be6105d7366004614e3a565b611526565b3480156105e857600080fd5b5060cc5461049e906001600160a01b031681565b34801561060857600080fd5b506104f3610617366004614ddb565b61153a565b6104be61062a366004615030565b6115db565b34801561063b57600080fd5b5061049e61064a366004614d97565b600090815260d260205260409020546001600160a01b031690565b34801561067157600080fd5b506104be610680366004614e3a565b6115f8565b34801561069157600080fd5b506104be6106a0366004614ddb565b611630565b3480156106b157600080fd5b506104be6106c0366004614e3a565b61164d565b3480156106d157600080fd5b506104be6106e036600461505c565b611712565b3480156106f157600080fd5b50609a5460405160ff9091168152602001610453565b6104be610715366004615004565b611768565b34801561072657600080fd5b506104be610735366004614d97565b611783565b34801561074657600080fd5b506104be610755366004614e3a565b611798565b6104be610768366004615154565b6117fc565b34801561077957600080fd5b506104f3610788366004614d97565b6118b1565b34801561079957600080fd5b506104be6107a83660046151a1565b611942565b3480156107b957600080fd5b506104f361196c565b3480156107ce57600080fd5b506104476107dd366004614e3a565b6001600160a01b031660009081526097602052604090205460ff1690565b34801561080757600080fd5b506104be610816366004614e3a565b611a1a565b34801561082757600080fd5b5061049e610836366004614d97565b611a81565b34801561084757600080fd5b506104be610856366004614d97565b611af1565b34801561086757600080fd5b50610447610876366004614ddb565b611b06565b34801561088757600080fd5b506104f3600080516020615ce883398151915281565b3480156108a957600080fd5b506104f36108b8366004614e3a565b611b21565b3480156108c957600080fd5b506104be6108d8366004614ddb565b611ba9565b3480156108e957600080fd5b506104be6108f83660046151d1565b611bc2565b34801561090957600080fd5b506104f3600080516020615c6883398151915281565b34801561092b57600080fd5b506104be61093a366004614ddb565b611dd3565b34801561094b57600080fd5b506104be61095a3660046151a1565b611dec565b34801561096b57600080fd5b5060a05461049e906001600160a01b031681565b34801561098b57600080fd5b506001610447565b6104be6104b9366004614e05565b3480156109ad57600080fd5b506104be6109bc36600461505c565b611e16565b3480156109cd57600080fd5b506104be6109dc366004614ddb565b611e36565b3480156109ed57600080fd5b50610471611e4f565b348015610a0257600080fd5b50610471610a11366004614d97565b611e5e565b348015610a2257600080fd5b506104be610a31366004615234565b611f00565b348015610a4257600080fd5b506104f3610a51366004614d97565b611fd2565b348015610a6257600080fd5b506104f3610a71366004614d97565b61201a565b348015610a8257600080fd5b506104f3600081565b348015610a9757600080fd5b506104be610aa636600461527f565b612038565b348015610ab757600080fd5b50610447610ac6366004614d97565b60ce6020526000908152604090205460ff1681565b348015610ae757600080fd5b506104be610af6366004615004565b61204a565b348015610b0757600080fd5b506104f3610b16366004614d97565b6121d3565b348015610b2757600080fd5b506104be610b3636600461505c565b6121e7565b6104be610b493660046152b6565b612207565b348015610b5a57600080fd5b50610447610b6936600461505c565b61223a565b348015610b7a57600080fd5b50610447610b8936600461531d565b61226b565b348015610b9a57600080fd5b50610447610ba9366004614ddb565b61229e565b348015610bba57600080fd5b506104be610bc9366004614e3a565b6122b9565b348015610bda57600080fd5b50610471610be9366004614d97565b61234f565b6104be610bfc366004615346565b6123ee565b348015610c0d57600080fd5b506104f3600080516020615c8883398151915281565b348015610c2f57600080fd5b506104be610c3e366004614d97565b61241b565b348015610c4f57600080fd5b506104f3610c5e3660046151a1565b612430565b348015610c6f57600080fd5b50610447610c7e366004614e3a565b6001600160a01b0316600090815260cb602052604090205460ff1690565b348015610ca857600080fd5b506104f3610cb7366004615373565b61244f565b348015610cc857600080fd5b50610cdc610cd7366004614d97565b612483565b60405161045395949392919061539f565b348015610cf957600080fd5b506104be610d08366004614e3a565b6124e3565b348015610d1957600080fd5b506104716124f4565b348015610d2e57600080fd5b50610447610d3d3660046153e0565b6001600160a01b039182166000908152609f602090815260408083209390941682526002909201909152205460ff1690565b348015610d7b57600080fd5b50610d8f610d8a36600461540a565b6125ee565b604051610453919061544a565b348015610da857600080fd5b50610447610db7366004614ddb565b6126a7565b348015610dc857600080fd5b50610447610dd7366004614d97565b6126c1565b60006001600160e01b03198216630354d60560e61b1480610e0d57506001600160e01b031982166380ac58cd60e01b145b80610e2857506001600160e01b031982166370b0048160e11b145b80610e375750610e37826126ce565b92915050565b606060988054610e4c9061548e565b80601f0160208091040260200160405190810160405280929190818152602001828054610e789061548e565b8015610ec55780601f10610e9a57610100808354040283529160200191610ec5565b820191906000526020600020905b815481529060010190602001808311610ea857829003601f168201915b5050505050905090565b6000610eda82612703565b6000828152609e6020526040902054609d80549091908110610efe57610efe6154c2565b60009182526020909120600460069092020101546001600160a01b031692915050565b60405163c03a3ff560e01b815260040160405180910390fd5b60606000610f5360408051602081019091526000815290565b60a0549091506001600160a01b0316610fb3576000815111610f845760405180602001604052806000815250611025565b80610f8e84612728565b604051602001610f9f9291906154d8565b604051602081830303815290604052611025565b60a054604051633601bfc560e11b8152600481018590526001600160a01b0390911690636c037f8a906024015b600060405180830381865afa158015610ffd573d6000803e3d6000fd5b505050506040513d6000823e601f3d908101601f191682016040526110259190810190615518565b9392505050565b60006110406110396127ba565b85846127c9565b61104984612844565b90506110608382611059876114de565b600061284e565b611025848284612978565b611073612c57565b6040516001600160a01b038216907f286f82d2b1e37b5e9f33e455d014b4a5f6c29388e6e41e1281d4c83e04f4265590600090a26001600160a01b0316600090815260cb60205260409020805460ff19166001179055565b600054610100900460ff16158080156110eb5750600054600160ff909116105b8061110c57506110fa30612c69565b15801561110c575060005460ff166001145b6111745760405162461bcd60e51b815260206004820152602e60248201527f496e697469616c697a61626c653a20636f6e747261637420697320616c72656160448201526d191e481a5b9a5d1a585b1a5e995960921b60648201526084015b60405180910390fd5b6000805460ff191660011790558015611197576000805461ff0019166101001790555b6001600160a01b0386166111be57604051630ca2c90160e21b815260040160405180910390fd5b6001600160a01b0385166111e557604051630ca2c90160e21b815260040160405180910390fd5b6001600160a01b03841661120c57604051630ca2c90160e21b815260040160405180910390fd5b60005b8281101561127957600084848381811061122b5761122b6154c2565b90506020020160208101906112409190614e3a565b6001600160a01b03160361126757604051630ca2c90160e21b815260040160405180910390fd5b80611271816155a4565b91505061120f565b506112ed8a8a8080601f01602080910402602001604051908101604052809392919081815260200183838082843760009201919091525050604080516020601f8e018190048102820181019092528c815292508c91508b908190840183828082843760009201829052509250612c78915050565b6112f78383612caa565b61130085612ce3565b61130984612d2d565b6001600160a01b038616600090815260cb602052604090819020805460ff19166001179055517fe985d3de7118f12afc4791760312703563be41d60407308ef7b5771d0c58383f9061136c908c908c908c908c908c908c908c908c908c906155e6565b60405180910390a180156113ba576000805461ff0019169055604051600181527f7f26b83ff96e1f2b6a682f133852f6798a09c465da95921460cefb38474024989060200160405180910390a15b50505050505050505050565b6113d76113d2826114de565b612d77565b600081815260cf6020526040808220805460ff191660021790555182917fdb43aa42235c8d63908794a952603e8d43a549383d13123c3d893a3fc2e6249591a250565b61142384612d77565b600061143186866001612d8f565b9050831561144b57600081815260d0602052604090208490555b821561145b5761145b8184612da7565b6114636127ba565b600082815260d26020526040902080546001600160a01b0319166001600160a01b03929092169190911790556114998286612df6565b505050505050565b6114b26114ac6127ba565b50600090565b6114ce5760405162461bcd60e51b815260040161116b90615690565b6114d9838383612e91565b505050565b60006114e982612703565b6000828152609e6020526040902054609d8054909190811061150d5761150d6154c2565b9060005260206000209060060201600101549050919050565b61152e612c57565b61153781612d2d565b50565b600061154583611b21565b821061159e5760405162461bcd60e51b815260206004820152602260248201527f455243333532353a206f776e657220696e646578206f7574206f6620626f756e604482015261647360f01b606482015260840161116b565b6001600160a01b0383166000908152609f602052604090208054839081106115c8576115c86154c2565b9060005260206000200154905092915050565b6115ed6115e66127ba565b84836127c9565b6114d9838383612978565b611600612c57565b6001600160a01b03811661162757604051630ca2c90160e21b815260040160405180910390fd5b61153781612ce3565b611649600080516020615c888339815191528284611e16565b5050565b6001600160a01b037f00000000000000000000000000000000000000000000000000000000000000001630036116955760405162461bcd60e51b815260040161116b906156e2565b7f00000000000000000000000000000000000000000000000000000000000000006001600160a01b03166116c7612fe0565b6001600160a01b0316146116ed5760405162461bcd60e51b815260040161116b9061572e565b6116f681612ffc565b6040805160008082526020820190925261153791839190613004565b61171a6127ba565b6001600160a01b0316816001600160a01b03161461175d576040516307ca099360e31b8152600481018490526001600160a01b038216602482015260440161116b565b6114d983838361316f565b6114d983838360405180602001604052806000815250612207565b61178f6113d2826114de565b6115378161320b565b6117a0612c57565b6117c5816001600160a01b03166000908152609760205260409020805460ff19169055565b6040516001600160a01b038216907fb96d15bf9258c7b8df062753a6a262864611fc7b060a5ee2e57e79b85f898d3890600090a250565b6001600160a01b037f00000000000000000000000000000000000000000000000000000000000000001630036118445760405162461bcd60e51b815260040161116b906156e2565b7f00000000000000000000000000000000000000000000000000000000000000006001600160a01b0316611876612fe0565b6001600160a01b03161461189c5760405162461bcd60e51b815260040161116b9061572e565b6118a582612ffc565b61164982826001613004565b60006118bc609d5490565b82106119165760405162461bcd60e51b815260206004820152602360248201527f455243333532353a20676c6f62616c20696e646578206f7574206f6620626f756044820152626e647360e81b606482015260840161116b565b609d8281548110611929576119296154c2565b9060005260206000209060060201600001549050919050565b611962600080516020615c8883398151915261195d846114de565b613308565b6116498282612da7565b6000306001600160a01b037f00000000000000000000000000000000000000000000000000000000000000001614611a075760405162461bcd60e51b815260206004820152603860248201527f555550535570677261646561626c653a206d757374206e6f742062652063616c6044820152771b1959081d1a1c9bdd59da0819195b1959d85d1958d85b1b60421b606482015260840161116b565b50600080516020615cc883398151915290565b611a22612c57565b611a4a816001600160a01b03166000908152609760205260409020805460ff19166001179055565b6040516001600160a01b038216907f0ea0ce2c048ff45a4a95f2947879de3fb94abec2f152190400cab2d1272a68e790600090a250565b6000611a8c82612703565b6000828152609e6020526040902054609d80549091908110611ab057611ab06154c2565b60009182526020909120600360069092020101546001600160a01b0316905080611aec5760405162461bcd60e51b815260040161116b9061577a565b919050565b611afd6113d2826114de565b6115378161331a565b6000611025600080516020615c88833981519152838561223a565b60006001600160a01b038216611b8d5760405162461bcd60e51b815260206004820152602b60248201527f455243333532353a2062616c616e636520717565727920666f7220746865207a60448201526a65726f206164647265737360a81b606482015260840161116b565b506001600160a01b03166000908152609f602052604090205490565b611649600080516020615c8883398151915282846121e7565b6000839003611be45760405163eb8abb6160e01b815260040160405180910390fd5b600085815260d1602052604090208054611bfd9061548e565b159050611c2057604051636f55f62b60e01b81526004810186905260240161116b565b600085815260d160205260409020611c39848683615808565b508115611d5e57600085815260ce60205260409020805460ff19168315151790556001600160a01b038116611c8157604051630ca2c90160e21b815260040160405180910390fd5b611c93816001600160a01b0316612c69565b611cb2578060405163d4daafa160e01b815260040161116b9190614db0565b611ccb600080516020615c6883398151915286836133c1565b611ce4600080516020615ce883398151915286836133c1565b611d0b600080516020615ce883398151915286600080516020615c68833981519152613452565b611d32600080516020615c8883398151915286600080516020615c68833981519152613452565b611d59600080516020615c6883398151915286600080516020615c68833981519152613452565b611dcc565b611d7e600080516020615ce883398151915286611d796127ba565b6133c1565b611da5600080516020615ce883398151915286600080516020615ce8833981519152613452565b611dcc600080516020615c8883398151915286600080516020615ce8833981519152613452565b5050505050565b611649600080516020615ce88339815191528284611e16565b611e04600080516020615ce883398151915283613308565b600091825260d3602052604090912055565b611e208383612430565b82611e2b8282613308565b611dcc85858561316f565b611649600080516020615ce883398151915282846121e7565b606060998054610e4c9061548e565b600081815260d160205260409020805460609190611e7b9061548e565b80601f0160208091040260200160405190810160405280929190818152602001828054611ea79061548e565b8015611ef45780601f10611ec957610100808354040283529160200191611ef4565b820191906000526020600020905b815481529060010190602001808311611ed757829003601f168201915b50505050509050919050565b6000819003611f225760405163eb8abb6160e01b815260040160405180910390fd5b600083815260d1602052604090208054611f3b9061548e565b9050600003611f6057604051630817886d60e41b81526004810184905260240161116b565b611f7b600080516020615ce883398151915284610b696127ba565b611fb357611f876127ba565b83600080516020615ce883398151915260405163c8c801a760e01b815260040161116b939291906158c1565b600083815260d160205260409020611fcc828483615808565b50505050565b6000611fdd82612703565b6000828152609e6020526040902054609d80549091908110612001576120016154c2565b9060005260206000209060060201600201549050919050565b6000612025826134bd565b50600090815260d0602052604090205490565b6116496120436127ba565b83836134e6565b600081815260ce602052604090205460ff1661207c5760405163db53ce7160e01b81526004810182905260240161116b565b612095600080516020615c6883398151915282856135b9565b6001600160a01b0382166120bc57604051630ca2c90160e21b815260040160405180910390fd5b6120ce826001600160a01b0316612c69565b6120ed578160405163d4daafa160e01b815260040161116b9190614db0565b612106600080516020615c6883398151915282846121e7565b61211f600080516020615ce883398151915282846121e7565b612138600080516020615c8883398151915282846121e7565b612151600080516020615c888339815191528285611e16565b61216a600080516020615ce88339815191528285611e16565b612183600080516020615c688339815191528285611e16565b604080516001600160a01b038086168252841660208201529081018290527f744258a28673e8738e2812c0ab8e8dbd70352f8871b1febac0dd753d96d79f589060600160405180910390a1505050565b600081815260cd6020526040812054610e37565b6121f18383612430565b826121fc8282613308565b611dcc8585856133c1565b6122126114ac6127ba565b61222e5760405162461bcd60e51b815260040161116b90615690565b611fcc848484846135e7565b600091825260ca602090815260408084209484529381528383206001600160a01b0392909216835252205460ff1690565b600061102582801561227f5761227f61567a565b600085815260d3602052604090205490600160ff919091161b16151590565b6000611025600080516020615ce8833981519152838561223a565b6122c1612c57565b6122c96127ba565b6001600160a01b0316816001600160a01b0316036122fa57604051634a19f28160e01b815260040160405180910390fd5b6040516001600160a01b038216907ffb445f6ec07647d2bb7af72821e6b8b7303ec375e934d4a338d38ed5846c2d5690600090a26001600160a01b0316600090815260cb60205260409020805460ff19169055565b606061235a82612703565b600061237160408051602081019091526000815290565b60a0549091506001600160a01b03166123bd5760008151116123a25760405180602001604052806000815250611025565b806123ac84612728565b604051602001610f9f9291906158e2565b60a0546040516344a5a61760e11b8152600481018590526001600160a01b039091169063894b4c2e90602401610fe0565b60006123f9846114de565b90506124076113d2856114de565b612411848461365a565b611fcc8282612df6565b6124276113d2826114de565b611537816136b6565b600090815260ca60209081526040808320938352929052206001015490565b600061245a83612703565b506000918252609c602090815260408084206001600160a01b0393909316845291905290205490565b600080606060008061249486611a81565b600087815260cf602052604090205490955060ff1660028111156124ba576124ba61567a565b600096875260d0602090815260408089205460cd90925290972054959790969395939450915050565b6124eb612c57565b61153781613704565b6060600061250d60408051602081019091526000815290565b60a0549091506001600160a01b031661256d57600081511161253e57604051806020016040528060008152506125e8565b806125483061374e565b604051602001612559929190615911565b6040516020818303038152906040526125e8565b60a060009054906101000a90046001600160a01b03166001600160a01b031663725fa09c6040518163ffffffff1660e01b8152600401600060405180830381865afa1580156125c0573d6000803e3d6000fd5b505050506040513d6000823e601f3d908101601f191682016040526125e89190810190615518565b91505090565b60606000806125fe868686613764565b915091506000816001600160401b0381111561261c5761261c615091565b604051908082528060200260200182016040528015612645578160200160208202803683370190505b50905060005b8281101561269c57838181518110612665576126656154c2565b602002602001015182828151811061267f5761267f6154c2565b602090810291909101015280612694816155a4565b91505061264b565b509695505050505050565b6000806126b684846001613764565b151595945050505050565b6000610e3782600061384a565b60006001600160e01b031982166333cb74f560e11b1480610e3757506301ffc9a760e01b6001600160e01b0319831614610e37565b61270c8161395e565b6115375760405162461bcd60e51b815260040161116b9061577a565b60606000612735836139aa565b60010190506000816001600160401b0381111561275457612754615091565b6040519080825280601f01601f19166020018201604052801561277e576020820181803683370190505b5090508181016020015b600019016f181899199a1a9b1b9c1cb0b131b232b360811b600a86061a8153600a850494508461278857509392505050565b60006127c4613a82565b905090565b60006127d5838561244f565b90506000198114611fcc57818110156128305760405162461bcd60e51b815260206004820152601f60248201527f455243333532353a20696e73756666696369656e7420616c6c6f77616e636500604482015260640161116b565b611fcc838561283f8585615955565b613ab9565b6000610e37613be8565b6001600160a01b0384166128ae5760405162461bcd60e51b815260206004820152602160248201527f455243333532353a206d696e7420746f20746865207a65726f206164647265736044820152607360f81b606482015260840161116b565b826000036129085760405162461bcd60e51b815260206004820152602160248201527f455243333532353a2063616e6e6f74206d696e74207a65726f20746f6b656e496044820152601960fa1b606482015260840161116b565b6129118361395e565b1561295e5760405162461bcd60e51b815260206004820152601d60248201527f455243333532353a20746f6b656e20616c7265616479206d696e746564000000604482015260640161116b565b612969848484613c02565b6129738382613cb6565b611fcc565b6129818361395e565b6129dd5760405162461bcd60e51b815260206004820152602760248201527f455243333532353a207472616e736665722066726f6d20696e76616c696420746044820152661bdad95b88125160ca1b606482015260840161116b565b6129e68261395e565b612a405760405162461bcd60e51b815260206004820152602560248201527f455243333532353a207472616e7366657220746f20696e76616c696420746f6b604482015264195b88125160da1b606482015260840161116b565b6000838152609e6020526040812054609d80549091908110612a6457612a646154c2565b906000526020600020906006020190506000609d609e60008681526020019081526020016000205481548110612a9c57612a9c6154c2565b906000526020600020906006020190508282600201541015612b135760405162461bcd60e51b815260206004820152602a60248201527f455243333532353a20696e73756666696369656e742062616c616e636520666f60448201526939103a3930b739b332b960b11b606482015260840161116b565b8060010154826001015414612b815760405162461bcd60e51b815260206004820152602e60248201527f455243333532353a207472616e7366657220746f20746f6b656e20776974682060448201526d191a5999995c995b9d081cdb1bdd60921b606482015260840161116b565b82826002016000828254612b959190615955565b9250508190555082816002016000828254612bb09190615968565b909155505060405183815284908690600080516020615ca88339815191529060200160405180910390a3612bf585858560405180602001604052806000815250613d29565b611dcc5760405162461bcd60e51b815260206004820152602d60248201527f455243333532353a207472616e736665722072656a656374656420627920455260448201526c21999a991aa932b1b2b4bb32b960991b606482015260840161116b565b612c67612c626127ba565b613ea4565b565b6001600160a01b03163b151590565b600054610100900460ff16612c9f5760405162461bcd60e51b815260040161116b9061597b565b6114d9838383613edf565b600054610100900460ff16612cd15760405162461bcd60e51b815260040161116b9061597b565b612cd9613f3d565b6116498282613f64565b60cc80546001600160a01b0319166001600160a01b0383169081179091556040517f5e4a30f4224898dbac86adca855a5edd3b8341a3aeb2b6ff0f0b5a82c013b65a90600090a250565b60d480546001600160a01b0319166001600160a01b0383169081179091556040517f6369e6a29b73ae27c65aa2678758ea2de84ebfbe9e00a08275110e78647286de90600090a250565b611537600080516020615c8883398151915282613308565b6000612d99613be8565b90506110258482858561284e565b600082815260cd602090815260409182902083905581518481529081018390527f5e07998cef9cea674942c66f0ea7b0bce89ab9473ce240cc93d616c3491f8aeb910160405180910390a15050565b60d45460405163a2793ecd60e01b81526001600160a01b039091169063a2793ecd903490612e2a90869086906004016159e4565b6000604051808303818588803b158015612e4357600080fd5b505af193505050508015612e55575060015b611649573d808015612e83576040519150601f19603f3d011682016040523d82523d6000602084013e612e88565b606091505b50805181602001fd5b826001600160a01b0316612ea482611a81565b6001600160a01b031614612f065760405162461bcd60e51b8152602060048201526024808201527f455243333532353a207472616e736665722066726f6d20696e76616c6964206f6044820152633bb732b960e11b606482015260840161116b565b6001600160a01b038216612f6a5760405162461bcd60e51b815260206004820152602560248201527f455243333532353a207472616e7366657220746f20746865207a65726f206164604482015264647265737360d81b606482015260840161116b565b6000612f75826114de565b90506000612f8283611fd2565b9050612f8f600084613ffd565b612f9883614094565b612fa2858461413f565b612fac8484614260565b82846001600160a01b0316866001600160a01b0316600080516020615d2f83398151915260405160405180910390a4611dcc565b600080516020615cc8833981519152546001600160a01b031690565b611537612c57565b7f4910fdfa16fed3260ed0e7147f7cc6da11a60208b5b9406d12a635614ffd91435460ff1615613037576114d9836142e9565b826001600160a01b03166352d1902d6040518163ffffffff1660e01b8152600401602060405180830381865afa925050508015613091575060408051601f3d908101601f1916820190925261308e91810190615a5d565b60015b6130f45760405162461bcd60e51b815260206004820152602e60248201527f45524331393637557067726164653a206e657720696d706c656d656e7461746960448201526d6f6e206973206e6f74205555505360901b606482015260840161116b565b600080516020615cc883398151915281146131635760405162461bcd60e51b815260206004820152602960248201527f45524331393637557067726164653a20756e737570706f727465642070726f786044820152681a58589b195555525160ba1b606482015260840161116b565b506114d9838383614383565b61317a83838361223a565b156114d957600082815260ca6020908152604080832086845282528083206001600160a01b03851684529091529020805460ff191690556131b96127ba565b6001600160a01b0316816001600160a01b0316847f6f9148fcdc32766ca802c14716295d56eab7ed848d0dba113966f40087c88390856040516131fe91815260200190565b60405180910390a4505050565b61321481612703565b6000818152609e6020526040812054609d80549091908110613238576132386154c2565b60009182526020909120600691909102016003810154600182015460028301549293506001600160a01b039091169161327085614094565b61327a838661413f565b613283856143a8565b600085600080516020615ca8833981519152836040516132a591815260200190565b60405180910390a3600082867fe4f48c240d3b994948aa54f3e2f5fca59263dfe1d52b6e4cf39a5d249b5ccb6560405160405180910390a460405185906000906001600160a01b03861690600080516020615d2f833981519152908390a4611dcc565b61164982826133156127ba565b6135b9565b613323816134bd565b6001600082815260cf602052604090205460ff1660028111156133485761334861567a565b1461338157600081815260cf6020526040908190205490516308c9ef2d60e11b815261116b91839160ff90911690600190600401615a76565b600081815260cf6020526040808220805460ff191690555182917fe2babfd5e77285a3c3dbc4b25592cbe4a7a26e97a7ac63067a22ebdaa9b82add91a250565b6133cc83838361223a565b6114d957600082815260ca6020908152604080832086845282528083206001600160a01b03851684529091529020805460ff1916600117905561340d6127ba565b6001600160a01b0316816001600160a01b0316847f4dc88bd74ca601684356789d5b3dbc9cd44275b2544e8d35041203703b768232856040516131fe91815260200190565b600061345e8484612430565b600084815260ca6020908152604080832088845282529182902060010185905590518581529192508391839187917f15f4a36186b2284157fe71215a07487f6c8bdc1203b3307c3e1fd9693011d3d3910160405180910390a450505050565b6134c68161395e565b611537576040516321fbdd2b60e11b81526004810182905260240161116b565b816001600160a01b0316836001600160a01b0316036135475760405162461bcd60e51b815260206004820152601a60248201527f455243333532353a20617070726f766520746f2063616c6c6572000000000000604482015260640161116b565b6001600160a01b038381166000818152609f602090815260408083209487168084526002909501825291829020805460ff191686151590811790915591519182527f17307eab39ab6107e8899845ad3d59bd9653f200f220920489ca2b5937696c3191015b60405180910390a3505050565b6135c483838361223a565b6114d95780828460405163c8c801a760e01b815260040161116b939291906158c1565b6135f2848484612e91565b6135fe848484846145b6565b611fcc5760405162461bcd60e51b815260206004820152602760248201527f455243333532353a207472616e7366657220746f206e6f6e204552433732315260448201526632b1b2b4bb32b960c91b606482015260840161116b565b613665826001614703565b600082815260d06020526040908190208290555182907f1ebc57da8b3ebab98506502fbb73232ea29fbe86e4963a5a8c004810ad11190d906136aa9084815260200190565b60405180910390a25050565b6136c1816001614703565b600081815260cf6020526040808220805460ff191660011790555182917f779fbee689bbd6f006ecb329206d35c7db7380f9837a8826fb8dc5cfcd3d33dd91a250565b60a080546001600160a01b0319166001600160a01b0383169081179091556040517f5252f52e45fc8ee6a7b43cef3645d23e9a470a34182b8b3a12627556635bfc9c90600090a250565b6060610e376001600160a01b0383166014614735565b606060008061377286611b21565b90506000816001600160401b0381111561378e5761378e615091565b6040519080825280602002602001820160405280156137b7578160200160208202803683370190505b5090506000805b8381101561383c5760006137d28a8361153a565b9050886137de826114de565b1480156137f957508715806137f957506137f981600061384a565b156138295780848461380a816155a4565b95508151811061381c5761381c6154c2565b6020026020010181815250505b5080613834816155a4565b9150506137be565b509097909650945050505050565b600082815260cf602052604081205460ff168181600281111561386f5761386f61567a565b1461387e576000915050610e37565b6000613889856114de565b905061389681600061226b565b156138eb57600085815260d260205260409020546001600160a01b031680158015906138d857506138d6600080516020615c88833981519152838361223a565b155b156138e95760009350505050610e37565b505b60006138f686611a81565b600087815260d0602052604090205490915015801590613914575084155b15613949576001600160a01b0381161580159061393f5750600086815260d060205260409020544211155b9350505050610e37565b6001600160a01b031615159250610e37915050565b609d5460009015801590610e3757506000828152609e6020526040902054609d80548492908110613991576139916154c2565b9060005260206000209060060201600001541492915050565b60008072184f03e93ff9f4daa797ed6e38ed64bf6a1f0160401b83106139e95772184f03e93ff9f4daa797ed6e38ed64bf6a1f0160401b830492506040015b6d04ee2d6d415b85acef81000000008310613a15576d04ee2d6d415b85acef8100000000830492506020015b662386f26fc100008310613a3357662386f26fc10000830492506010015b6305f5e1008310613a4b576305f5e100830492506008015b6127108310613a5f57612710830492506004015b60648310613a71576064830492506002015b600a8310610e375760010192915050565b3360009081526097602052604081205460ff168015613aa2575060143610155b15613ab4575060131936013560601c90565b503390565b6001600160a01b038216613b225760405162461bcd60e51b815260206004820152602a60248201527f455243333532353a20617070726f76652076616c756520746f20746865207a65604482015269726f206164647265737360b01b606482015260840161116b565b613b2c82846148d0565b613b92576000838152609e6020526040902054609d80549091908110613b5457613b546154c2565b60009182526020808320600692909202909101600501805460018101825590835291200180546001600160a01b0319166001600160a01b0384161790555b6000838152609c602090815260408083206001600160a01b038616808552908352928190208490555183815285917f621b050de0ad08b51d19b48b3e6df75348c4de6bdd93e81b252ca62e28265b1b91016135ac565b609b805460009182613bf9836155a4565b91905055905090565b6040805160c081018252838152602080820184905260008284018190526001600160a01b038716606084015260808301819052835181815291820190935260a08201529050613c50816149a3565b613c5a8484614260565b60405183906001600160a01b03861690600090600080516020615d2f833981519152908290a4816000847fe4f48c240d3b994948aa54f3e2f5fca59263dfe1d52b6e4cf39a5d249b5ccb6560405160405180910390a450505050565b6000828152609e6020526040902054609d80548392908110613cda57613cda6154c2565b90600052602060002090600602016002016000828254613cfa9190615968565b90915550506040518181528290600090600080516020615ca88339815191529060200160405180910390a35050565b600080613d3585611a81565b9050803b63ffffffff1615613e96576040516301ffc9a760e01b8152629ce20b60e01b60048201526001600160a01b038216906301ffc9a790602401602060405180830381865afa925050508015613daa575060408051601f3d908101601f19168201909252613da791810190615aa3565b60015b613de9573d808015613dd8576040519150601f19603f3d011682016040523d82523d6000602084013e613ddd565b606091505b50600192505050613e9c565b8015613e8b576000826001600160a01b0316629ce20b613e076127ba565b8a8a8a8a6040518663ffffffff1660e01b8152600401613e2b959493929190615ac0565b6020604051808303816000875af1158015613e4a573d6000803e3d6000fd5b505050506040513d601f19601f82011682018060405250810190613e6e9190615afe565b6001600160e01b031916629ce20b60e01b149350613e9c92505050565b600192505050613e9c565b60019150505b949350505050565b6001600160a01b038116600090815260cb602052604090205460ff166115375780604051632957ccdd60e21b815260040161116b9190614db0565b600054610100900460ff16613f065760405162461bcd60e51b815260040161116b9061597b565b6001609b556098613f178482615b1b565b506099613f248382615b1b565b50609a805460ff191660ff929092169190911790555050565b600054610100900460ff16612c675760405162461bcd60e51b815260040161116b9061597b565b600054610100900460ff16613f8b5760405162461bcd60e51b815260040161116b9061597b565b60005b818110156114d957600160976000858585818110613fae57613fae6154c2565b9050602002016020810190613fc39190614e3a565b6001600160a01b031681526020810191909152604001600020805460ff191691151591909117905580613ff5816155a4565b915050613f8e565b6000818152609e6020526040902054609d80548492908110614021576140216154c2565b6000918252602090912060069091020160040180546001600160a01b0319166001600160a01b039283161790558190831661405b82611a81565b6001600160a01b03167f8c5be1e5ebec7d5bd14f71427d1e84f3dd0314c0f7b2291e5b200ac8c7c3b92560405160405180910390a45050565b6000818152609e6020526040812054609d805490919081106140b8576140b86154c2565b600091825260208220600560069092020190810154909250905b818110156141305760008360050182815481106140f1576140f16154c2565b6000918252602080832090910154878352609c825260408084206001600160a01b03909216845291528120555080614128816155a4565b9150506140d2565b506114d9600583016000614c69565b6000818152609e6020526040812054609d80549091908110614163576141636154c2565b6000918252602080832060069290920290910160030180546001600160a01b0319166001600160a01b039485161790559184168152609f9091526040812080549091906141b290600190615955565b905060008260000182815481106141cb576141cb6154c2565b90600052602060002001549050600083600101600086815260200190815260200160002054905081846000018281548110614208576142086154c2565b6000918252602080832090910192909255838152600186019091526040808220839055868252812055835484908061424257614242615bd4565b60019003818190600052602060002001600090559055505050505050565b6000818152609e6020526040902054609d80548492908110614284576142846154c2565b6000918252602080832060069290920290910160030180546001600160a01b0319166001600160a01b03948516179055939091168152609f80845260408083208054858552600182810188529285208190559286529082018155825292902090910155565b6142f281612c69565b6143545760405162461bcd60e51b815260206004820152602d60248201527f455243313936373a206e657720696d706c656d656e746174696f6e206973206e60448201526c1bdd08184818dbdb9d1c9858dd609a1b606482015260840161116b565b600080516020615cc883398151915280546001600160a01b0319166001600160a01b0392909216919091179055565b61438c83614af5565b6000825111806143995750805b156114d957611fcc8383614b35565b609d546000906143ba90600190615955565b6000838152609e6020526040812054609d80549394509092849081106143e2576143e26154c2565b60009182526020918290206040805160c08101825260069093029091018054835260018101548385015260028101548383015260038101546001600160a01b03908116606085015260048201541660808401526005810180548351818702810187019094528084529394919360a08601939283018282801561448d57602002820191906000526020600020905b81546001600160a01b0316815260019091019060200180831161446f575b505050505081525050905080609d83815481106144ac576144ac6154c2565b600091825260209182902083516006909202019081558282015160018201556040830151600282015560608301516003820180546001600160a01b039283166001600160a01b031991821617909155608085015160048401805491909316911617905560a08301518051919261452a92600585019290910190614c87565b505081516000908152609e602052604080822085905586825281205550609d80548061455857614558615bd4565b60008281526020812060066000199093019283020181815560018101829055600281018290556003810180546001600160a01b03199081169091556004820180549091169055906145ac6005830182614c69565b5050905550505050565b6000833b63ffffffff16156146fb57836001600160a01b031663150b7a026145dc6127ba565b8786866040518563ffffffff1660e01b81526004016145fe9493929190615bea565b6020604051808303816000875af1925050508015614639575060408051601f3d908101601f1916820190925261463691810190615afe565b60015b6146e1573d808015614667576040519150601f19603f3d011682016040523d82523d6000602084013e61466c565b606091505b5080516000036146d95760405162461bcd60e51b815260206004820152603260248201527f4552433732313a207472616e7366657220746f206e6f6e20455243373231526560448201527131b2b4bb32b91034b6b83632b6b2b73a32b960711b606482015260840161116b565b805181602001fd5b6001600160e01b031916630a85bd0160e11b149050613e9c565b506001613e9c565b61470d828261384a565b611649576040516316af84a960e21b815260048101839052811515602482015260440161116b565b60606000614744836002615c1d565b61474f906002615968565b6001600160401b0381111561476657614766615091565b6040519080825280601f01601f191660200182016040528015614790576020820181803683370190505b509050600360fc1b816000815181106147ab576147ab6154c2565b60200101906001600160f81b031916908160001a905350600f60fb1b816001815181106147da576147da6154c2565b60200101906001600160f81b031916908160001a90535060006147fe846002615c1d565b614809906001615968565b90505b6001811115614881576f181899199a1a9b1b9c1cb0b131b232b360811b85600f166010811061483d5761483d6154c2565b1a60f81b828281518110614853576148536154c2565b60200101906001600160f81b031916908160001a90535060049490941c9361487a81615c34565b905061480c565b5083156110255760405162461bcd60e51b815260206004820181905260248201527f537472696e67733a20686578206c656e67746820696e73756666696369656e74604482015260640161116b565b6000818152609e6020526040812054609d805483929081106148f4576148f46154c2565b6000918252602082206005600690920201015491505b81811015614998576000848152609e6020526040902054609d80546001600160a01b0388169290811061493f5761493f6154c2565b90600052602060002090600602016005018281548110614961576149616154c2565b6000918252602090912001546001600160a01b03160361498657600192505050610e37565b80614990816155a4565b91505061490a565b506000949350505050565b609d805482516000908152609e6020908152604080832084905560018401855593909152835160069092027fd26e832454299e9fabb89e0e5fffdc046d4e14431bc1bf607ffb2e8a1ddecf7b8101928355818501517fd26e832454299e9fabb89e0e5fffdc046d4e14431bc1bf607ffb2e8a1ddecf7c820155928401517fd26e832454299e9fabb89e0e5fffdc046d4e14431bc1bf607ffb2e8a1ddecf7d84015560608401517fd26e832454299e9fabb89e0e5fffdc046d4e14431bc1bf607ffb2e8a1ddecf7e840180546001600160a01b039283166001600160a01b03199182161790915560808601517fd26e832454299e9fabb89e0e5fffdc046d4e14431bc1bf607ffb2e8a1ddecf7f8601805491909316911617905560a084015180518594611fcc937fd26e832454299e9fabb89e0e5fffdc046d4e14431bc1bf607ffb2e8a1ddecf80909101920190614c87565b614afe816142e9565b6040516001600160a01b038216907fbc7cd75a20ee27fd9adebab32041f755214dbc6bffa90cc0225b39da2e5c2d3b90600090a250565b60606110258383604051806060016040528060278152602001615d08602791396060600080856001600160a01b031685604051614b729190615c4b565b600060405180830381855af49150503d8060008114614bad576040519150601f19603f3d011682016040523d82523d6000602084013e614bb2565b606091505b5091509150614bc386838387614bcd565b9695505050505050565b60608315614c3a578251600003614c3357614be785612c69565b614c335760405162461bcd60e51b815260206004820152601d60248201527f416464726573733a2063616c6c20746f206e6f6e2d636f6e7472616374000000604482015260640161116b565b5081613e9c565b613e9c8383815115614c4f5781518083602001fd5b8060405162461bcd60e51b815260040161116b9190614d84565b50805460008255906000526020600020908101906115379190614cec565b828054828255906000526020600020908101928215614cdc579160200282015b82811115614cdc57825182546001600160a01b0319166001600160a01b03909116178255602090920191600190910190614ca7565b50614ce8929150614cec565b5090565b5b80821115614ce85760008155600101614ced565b6001600160e01b03198116811461153757600080fd5b600060208284031215614d2957600080fd5b813561102581614d01565b60005b83811015614d4f578181015183820152602001614d37565b50506000910152565b60008151808452614d70816020860160208601614d34565b601f01601f19169290920160200192915050565b6020815260006110256020830184614d58565b600060208284031215614da957600080fd5b5035919050565b6001600160a01b0391909116815260200190565b80356001600160a01b0381168114611aec57600080fd5b60008060408385031215614dee57600080fd5b614df783614dc4565b946020939093013593505050565b600080600060608486031215614e1a57600080fd5b83359250614e2a60208501614dc4565b9150604084013590509250925092565b600060208284031215614e4c57600080fd5b61102582614dc4565b60008083601f840112614e6757600080fd5b5081356001600160401b03811115614e7e57600080fd5b602083019150836020828501011115614e9657600080fd5b9250929050565b600080600080600080600080600060c08a8c031215614ebb57600080fd5b89356001600160401b0380821115614ed257600080fd5b614ede8d838e01614e55565b909b50995060208c0135915080821115614ef757600080fd5b614f038d838e01614e55565b9099509750879150614f1760408d01614dc4565b9650614f2560608d01614dc4565b9550614f3360808d01614dc4565b945060a08c0135915080821115614f4957600080fd5b818c0191508c601f830112614f5d57600080fd5b813581811115614f6c57600080fd5b8d60208260051b8501011115614f8157600080fd5b6020830194508093505050509295985092959850929598565b600060a08284031215614fac57600080fd5b50919050565b60008060008060006101208688031215614fcb57600080fd5b614fd486614dc4565b9450602086013593506040860135925060608601359150614ff88760808801614f9a565b90509295509295909350565b60008060006060848603121561501957600080fd5b61502284614dc4565b9250614e2a60208501614dc4565b60008060006060848603121561504557600080fd5b505081359360208301359350604090920135919050565b60008060006060848603121561507157600080fd5b833592506020840135915061508860408501614dc4565b90509250925092565b634e487b7160e01b600052604160045260246000fd5b604051601f8201601f191681016001600160401b03811182821017156150cf576150cf615091565b604052919050565b60006001600160401b038211156150f0576150f0615091565b50601f01601f191660200190565b600082601f83011261510f57600080fd5b813561512261511d826150d7565b6150a7565b81815284602083860101111561513757600080fd5b816020850160208301376000918101602001919091529392505050565b6000806040838503121561516757600080fd5b61517083614dc4565b915060208301356001600160401b0381111561518b57600080fd5b615197858286016150fe565b9150509250929050565b600080604083850312156151b457600080fd5b50508035926020909101359150565b801515811461153757600080fd5b6000806000806000608086880312156151e957600080fd5b8535945060208601356001600160401b0381111561520657600080fd5b61521288828901614e55565b9095509350506040860135615226816151c3565b9150614ff860608701614dc4565b60008060006040848603121561524957600080fd5b8335925060208401356001600160401b0381111561526657600080fd5b61527286828701614e55565b9497909650939450505050565b6000806040838503121561529257600080fd5b61529b83614dc4565b915060208301356152ab816151c3565b809150509250929050565b600080600080608085870312156152cc57600080fd5b6152d585614dc4565b93506152e360208601614dc4565b92506040850135915060608501356001600160401b0381111561530557600080fd5b615311878288016150fe565b91505092959194509250565b6000806040838503121561533057600080fd5b823591506020830135600181106152ab57600080fd5b600080600060e0848603121561535b57600080fd5b83359250602084013591506150888560408601614f9a565b6000806040838503121561538657600080fd5b8235915061539660208401614dc4565b90509250929050565b6001600160a01b038616815260ff8516602082015260a0604082018190526000906153cc90830186614d58565b606083019490945250608001529392505050565b600080604083850312156153f357600080fd5b6153fc83614dc4565b915061539660208401614dc4565b60008060006060848603121561541f57600080fd5b61542884614dc4565b925060208401359150604084013561543f816151c3565b809150509250925092565b6020808252825182820181905260009190848201906040850190845b8181101561548257835183529284019291840191600101615466565b50909695505050505050565b600181811c908216806154a257607f821691505b602082108103614fac57634e487b7160e01b600052602260045260246000fd5b634e487b7160e01b600052603260045260246000fd5b600083516154ea818460208801614d34565b64736c6f742f60d81b908301908152835161550c816005840160208801614d34565b01600501949350505050565b60006020828403121561552a57600080fd5b81516001600160401b0381111561554057600080fd5b8201601f8101841361555157600080fd5b805161555f61511d826150d7565b81815285602083850101111561557457600080fd5b615585826020830160208601614d34565b95945050505050565b634e487b7160e01b600052601160045260246000fd5b6000600182016155b6576155b661558e565b5060010190565b81835281816020850137506000828201602090810191909152601f909101601f19169091010190565b60c0815260006155fa60c083018b8d6155bd565b60208382038185015261560e828b8d6155bd565b6001600160a01b038a811660408701528981166060870152888116608087015285820360a087015286825287935090820160005b87811015615667578261565486614dc4565b1682529383019390830190600101615642565b509e9d5050505050505050505050505050565b634e487b7160e01b600052602160045260246000fd5b60208082526032908201527f455243333532353a207472616e736665722063616c6c6572206973206e6f74206040820152711bdddb995c881b9bdc88185c1c1c9bdd995960721b606082015260800190565b6020808252602c908201527f46756e6374696f6e206d7573742062652063616c6c6564207468726f7567682060408201526b19195b1959d85d1958d85b1b60a21b606082015260800190565b6020808252602c908201527f46756e6374696f6e206d7573742062652063616c6c6564207468726f7567682060408201526b6163746976652070726f787960a01b606082015260800190565b602080825260199082015278115490cccd4c8d4e881a5b9d985b1a59081d1bdad95b881251603a1b604082015260600190565b601f8211156114d957600081815260208120601f850160051c810160208610156157d45750805b601f850160051c820191505b81811015611499578281556001016157e0565b600019600383901b1c191660019190911b1790565b6001600160401b0383111561581f5761581f615091565b6158338361582d835461548e565b836157ad565b6000601f841160018114615861576000851561584f5750838201355b61585986826157f3565b845550611dcc565b600083815260209020601f19861690835b828110156158925786850135825560209485019460019092019101615872565b50868210156158af5760001960f88860031b161c19848701351681555b505060018560011b0183555050505050565b6001600160a01b039390931683526020830191909152604082015260600190565b600083516158f4818460208801614d34565b835190830190615908818360208801614d34565b01949350505050565b60008351615923818460208801614d34565b68636f6e74726163742f60b81b9083019081528351615949816009840160208801614d34565b01600901949350505050565b81810381811115610e3757610e3761558e565b80820180821115610e3757610e3761558e565b6020808252602b908201527f496e697469616c697a61626c653a20636f6e7472616374206973206e6f74206960408201526a6e697469616c697a696e6760a81b606082015260800190565b6003811061153757634e487b7160e01b600052602160045260246000fd5b8235815260c081016020840135600381106159fe57600080fd5b615a07816159c6565b6020830152615a1860408501614dc4565b6001600160a01b03818116604085015280615a3560608801614dc4565b16606085015280615a4860808801614dc4565b16608085015250508260a08301529392505050565b600060208284031215615a6f57600080fd5b5051919050565b83815260608101615a86846159c6565b836020830152615a95836159c6565b826040830152949350505050565b600060208284031215615ab557600080fd5b8151611025816151c3565b60018060a01b038616815284602082015283604082015282606082015260a060808201526000615af360a0830184614d58565b979650505050505050565b600060208284031215615b1057600080fd5b815161102581614d01565b81516001600160401b03811115615b3457615b34615091565b615b4881615b42845461548e565b846157ad565b602080601f831160018114615b775760008415615b655750858301515b615b6f85826157f3565b865550611499565b600085815260208120601f198616915b82811015615ba657888601518255948401946001909101908401615b87565b5085821015615bc45787850151600019600388901b60f8161c191681555b5050505050600190811b01905550565b634e487b7160e01b600052603160045260246000fd5b6001600160a01b0385811682528416602082015260408101839052608060608201819052600090614bc390830184614d58565b8082028115828204841417610e3757610e3761558e565b600081615c4357615c4361558e565b506000190190565b60008251615c5d818460208701614d34565b919091019291505056fefca69b310bd19d275687ebe00b254b0772cf7a367c3f81a9a5a433f831fdc1dc3c63e605be3290ab6b04cfc46c6e1516e626d43236b034f09d7ede1d017beb0c0b2aac84f3ec956911fd78eae5311062972ff949f38412e8da39069d9f068cc6360894a13ba1a3210667c828492db98dca3e2076cc3735a920a3ca505d382bbc449b0a7e0acc0a95c71947cb19fdd122b42abca9bdfbd6707ca4f1e3fdaef05e416464726573733a206c6f772d6c6576656c2064656c65676174652063616c6c206661696c6564ddf252ad1be2c89b69c2b068fc378daa952ba7f163c4a11628f55a4df523b3efa2646970667358221220b12f017a6181b4a9943d17a1ba284323bb7a9965a0bdd1c15167923b79b66b9764736f6c63430008130033",
  "linkReferences": {},
  "deployedLinkReferences": {}
}